:020000040000FA
:100000000C9462000C948A000C948A000C948A0070
:100010000C948A000C948A000C948A000C948A0038
:100020000C948A000C948A000C948A000C948A0028
:100030000C948A000C948A000C948A000C948A0018
:100040000C943E040C948A000C948A000C948A0050
:100050000C948A000C948A000C948A000C948A00F8
:100060000C9488040C948A000000000024002700EF
:100070002A0000000000250028002B0000000000DE
:1000800023002600290004040404040404040202DA
:100090000202020203030303030301020408102007
:1000A0004080010204081020010204081020000012
:1000B0000008000201000003040700000000000027
:1000C0000000A30511241FBECFEFD8E0DEBFCDBFD7
:1000D00011E0A0E0B1E0EAE8FFE002C005900D9277
:1000E000A436B107D9F722E0A4E6B1E001C01D9221
:1000F000AC32B207E1F710E0C2E6D0E004C02197CD
:10010000FE010E94BD07C136D107C9F70E94C5058F
:100110000C94C3070C940000AF92BF92CF92DF9271
:10012000EF92FF920F931F93CF93DF936C017B01AC
:100130008B01040F151FEB015E01AE18BF08C0173D
:10014000D10759F06991D601ED91FC910190F081B0
:10015000E02DC6010995892B79F7C501DF91CF9173
:100160001F910F91FF90EF90DF90CF90BF90AF90D5
:100170000895833081F028F4813099F08230A9F01D
:1001800008958730A9F08830C9F08430B1F48091A7
:1001900080008F7D03C0809180008F7780938000E6
:1001A000089584B58F7784BD089584B58F7DFBCF86
:1001B0008091B0008F778093B00008958091B00057
:1001C0008F7DF9CFCF93DF93282F30E0F901E255EF
:1001D000FF4F8491F901E656FF4FD491F901EA5798
:1001E000FF4FC491CC23A1F081110E94B900EC2FE4
:1001F000F0E0EE0FFF1FE458FF4FA591B491EC9192
:10020000ED2381E090E009F480E0DF91CF91089543
:1002100080E090E0FACF1F93CF93DF93282F30E058
:10022000F901E255FF4F8491F901E656FF4FD49151
:10023000F901EA57FF4FC491CC23A9F0162F811181
:100240000E94B900EC2FF0E0EE0FFF1FEE58FF4FB9
:10025000A591B4918FB7F894EC91111108C0D09585
:10026000DE23DC938FBFDF91CF911F910895DE2BAA
:10027000F8CFCF93DF9390E0FC01E656FF4F249137
:100280008A579F4FFC0184918823D1F090E0880F1A
:10029000991FFC01E859FF4FA591B491FC01EE585C
:1002A000FF4FC591D49161110EC09FB7F8948C9106
:1002B000E22FE0958E238C932881E223E8839FBF71
:1002C000DF91CF9108958FB7F894EC91E22BEC93E6
:1002D0008FBFF6CF3FB7F8948091FE019091FF0158
:1002E000A0910002B091010226B5A89B05C02F3F46
:1002F00019F00196A11DB11D3FBFBA2FA92F982F4C
:100300008827BC01CD01620F711D811D911D42E046
:10031000660F771F881F991F4A95D1F708958F920E
:100320009F92AF92BF92CF92DF92EF92FF924B01DA
:100330005C010E946A016B017C010E946A016C19D8
:100340007D098E099F09683E734081059105A8F3D8
:1003500021E0821A9108A108B10888EEC80E83E056
:10036000D81EE11CF11C81149104A104B10429F7E9
:10037000FF90EF90DF90CF90BF90AF909F908F90C5
:10038000089508951F93CF93DF93C1E0C093650153
:10039000882399F1D091B8001091BA008091BC00E7
:1003A0008A7B8093BC0060E082E10E940B0160E0E8
:1003B00083E10E940B011092CF01C093CE011092F5
:1003C000A90161E082E10E940B0161E083E10E94EA
:1003D0000B018091B9008E7F8093B9008091B900A4
:1003E0008D7F8093B90088E48093B80085E4809382
:1003F000BC001093BA00D093B800DF91CF911F9149
:10040000089520918601260F3327331F21323105AD
:10041000ECF42091CF01FC0190E080E0243069F001
:1004200082E00895A09186012191AC014A595E4F66
:10043000A40FB52FB11D2C930196861798F38091C8
:100440008601680F6093860180E0089581E0089539
:1004500008958FEF9FEF08958FEF9FEF089580919C
:10046000640190E09195819591090895CF92DF9272
:10047000EF92FF920F931F93CF93DF937C01CB01F9
:100480008A012091D501222389F0EB016B01C40E72
:10049000D51ECC15DD0569F06991D701ED91FC9170
:1004A0000190F081E02DC7010995F3CF642F0E94E0
:1004B0000102C801DF91CF911F910F91FF90EF9042
:1004C000DF90CF900895CF93DF931F92CDB7DEB723
:1004D00069832091D5012223F9F02091F80120327F
:1004E00058F021E030E0FC013383228390E080E08B
:1004F0000F90DF91CF9108958091D601E82FF0E021
:10050000E952FE4F998190838F5F8093D60180934B
:10051000F80181E090E0ECCF61E0CE0101960E940D
:100520000102F7CFCF92DF92EF92FF920F931F93CA
:10053000CF93DF93FC01C48121E02093D501C093C8
:10054000F7011092D6011092F8018385682B84E19F
:1005500092E00E946302D091F801D13208F092C07B
:100560000E946A016B017C018091CF01811165C0FD
:1005700082E08093CF0181E08093CE018FEF809362
:10058000CD011092CC01D093CB01A7EDB1E0EBEA05
:10059000F1E080E0D81385C01092AA018091AA01F1
:1005A000CC0FC82BC093AA018091A901813009F01A
:1005B0007CC01092A9010E946A016B017C018091AC
:1005C000AA018093BB008091D1019091D201A091AA
:1005D000D301B091D401892B8A2B8B2B99F00E94E7
:1005E0006A010091D1011091D2012091D301309183
:1005F000D4016C197D098E099F0906171707280772
:100600003907E0F18091BC0083FDD9CF85EC809360
:10061000BC000E946A016B017C018091CF01823095
:1006200009F445C08091CD018F3F61F18091CD01EA
:10063000803241F18091CD0125C08091D10190910E
:10064000D201A091D301B091D401892B8A2B8B2B9D
:1006500009F48ACF0E946A010091D1011091D20160
:100660002091D3013091D4016C197D098E099F0925
:10067000061717072807390708F076CF8091D001B1
:100680000E94C2011092D6011092F8011092D50179
:10069000DF91CF911F910F91FF90EF90DF90CF905E
:1006A00008959D9191938F5F75CF85EEB0CF809126
:1006B000D1019091D201A091D301B091D401892BA5
:1006C0008A2B8B2B09F4A9CF0E946A010091D101DA
:1006D0001091D2012091D3013091D4016C197D0980
:1006E0008E099F09061717072807390708F095CFC5
:1006F000C5CF90E080E00895FC0101900020E9F76B
:100700003197AF01481B590BBC0180E292E00C9479
:100710008C000F931F93CF938C01C62F64600E94AF
:1007200092026C2F6B7FC8010E94920283EC90E0D2
:100730000197F1F7CF911F910F910895FF920F93B9
:100740001F93CF93DF938C01D62FC42F862F807FEA
:10075000F82EF42A6F2DC8010E9492026F2DC80155
:100760000E94890380E1D89FB0011124C62B6C2F11
:10077000C8010E9492026C2FC801DF91CF911F9196
:100780000F91FF900C948903CF93DF93CDB7DEB721
:1007900028970FB6F894DEBF0FBECDBF98E0E0E01B
:1007A000F1E0DE01119601900D929A95E1F790919A
:1007B0002902961708F46FEF262F30E0220F331F1F
:1007C00041E050E04C0F5D1F240F351FF90160819F
:1007D000680F606840E080E292E028960FB6F894D7
:1007E000DEBF0FBECDBFDF91CF910C949E0341E0E1
:1007F0000E949E0381E090E0089541E06BED80E26D
:1008000092E00E949E0381E090E0089585ED809340
:10081000BC008091D1019091D201A091D301B091FF
:10082000D4010796A11DB11D23E0B695A795979514
:1008300087952A95D1F72091BC0024FD03C0109222
:10084000CF0108954091D1015091D2016091D3011F
:100850007091D401452B462B472B69F30097A105D6
:10086000B10541F025E32A95F1F700000197A109B0
:10087000B109E1CF8091D0010C94C2011F920F9277
:100880000FB60F9211242F933F938F939F93AF93A3
:10089000BF938091FA019091FB01A091FC01B0916E
:1008A000FD013091F90123E0230F2D3758F5019612
:1008B000A11DB11D2093F9018093FA019093FB01D2
:1008C000A093FC01B093FD018091FE019091FF0186
:1008D000A0910002B09101020196A11DB11D80936B
:1008E000FE019093FF01A0930002B0930102BF911B
:1008F000AF919F918F913F912F910F900FBE0F90CD
:100900001F90189526E8230F0296A11DB11DD2CF86
:100910001F920F920FB60F9211242F933F934F9374
:100920005F936F937F938F939F93AF93BF93EF9357
:10093000FF938091B900887F803609F44AC0F0F5B2
:10094000883209F4A5C018F5803109F499C0B8F4CB
:10095000882309F4F5C0883009F492C0FF91EF9123
:10096000BF91AF919F918F917F916F915F914F91C7
:100970003F912F910F900FBE0F901F9018958831C7
:1009800009F486C0803251F78093CD0114C08034C1
:1009900009F49BC040F48033B9F38833F9F68093AF
:1009A000CD0185ECAEC0803509F483C0883509F4EB
:1009B00094C0883499F60E940604D0CF883909F48F
:1009C0008AC038F5883729F050F4883611F080371E
:1009D00029F683E08093CF011092A80155C0883892
:1009E00009F479C0803919F0803809F0B7CF8091C7
:1009F000A801803208F06FC0E091A80181E08E0F5D
:100A00008093A8018091BB00F0E0E857FE4F8083FF
:100A10003BC0803B39F0D0F4803A09F477C0883A83
:100A200009F09CCF84E08093CF011092870110924F
:100A30008601F0E0E0E009958091860181110FC008
:100A400081E0809386011092660109C0803C09F420
:100A5000A8CF883C09F4A5CF883B09F07FCFE0916F
:100A6000870181E08E0F80938701F0E0EA59FE4F05
:100A700080818093BB00909187018091860129C07D
:100A80008091AA018093BB0085EC8093BC0066CF67
:100A90009091CC018091CB01981758F5E091CC0151
:100AA00081E08E0F8093CC01F0E0E555FE4F808110
:100AB000E9CFE091CC0181E08E0F8093CC01809151
:100AC000BB00F0E0E555FE4F80839091CC01809112
:100AD000CB019817C8F285E8D8CFE091CC0181E02E
:100AE0008E0F8093CC018091BB00F0E0E555FE4F66
:100AF00080838091CE0181115ECF81E08093A90136
:100B000084EA8093BC001092CF0128CF85EC8093BB
:100B1000BC001092CF018091A801803230F4E091A6
:100B2000A801F0E0E857FE4F10826091A80170E044
:100B300088E891E0F0E0E0E009951092A8010ECF7E
:100B40001092CD0138CFE4E1F2E01382128288EEF8
:100B500093E0A0E0B0E084839583A683B7838CE024
:100B600091E091838083E0E2F2E0138212828EE1D1
:100B700091E09183808388E3848380E1808782E0B1
:100B80008187128688E083870895789484B582608F
:100B900084BD84B5816084BD85B5826085BD85B521
:100BA000816085BD80916E00816080936E0010929F
:100BB000810080918100826080938100809181001A
:100BC00081608093810080918000816080938000AB
:100BD0008091B10084608093B1008091B000816009
:100BE0008093B00080917A00846080937A00809135
:100BF0007A00826080937A0080917A00816080938D
:100C00007A0080917A00806880937A001092C10007
:100C100088E080932B0260E080E292E00E949202E2
:100C200060E08EE00E94390160E08FE00E943901AF
:100C300060E080E10E94390160E081E10E943901B9
:100C400060E083E00E94390161E088E00E943901A0
:100C500061E087E00E94390160E087E00E940B01BB
:100C60008BE3C82E8FE1D82E90E0692E90E0792E8C
:100C7000AA24A394B12C88E00E94E200909313026E
:100C8000809312028EE00E94E20090931102809302
:100C900010028FE00E94E200EC0190930F0280931B
:100CA0000E0280E10E94E2008C0190930D0280937D
:100CB0000C0281E10E94E2007C0190930B02809380
:100CC0000A0283E00E94E2004C01909309028093A3
:100CD000080240E061E080E292E00E949E03C601CB
:100CE0000197F1F781E08816910409F08CC0EA942D
:100CF000EF2809F00FC10130110509F00BC1219750
:100D000009F008C160E080E00E94C4030E94FD0376
:100D10000E94FD030E94FD030E94FD0360E085E048
:100D20000E94C40386E291E00E947C0310920702B5
:100D30001092060210920502109204028091120293
:100D40009091130261E0019709F0F5C080E00E94E4
:100D5000C40389E491E00E947C0380911002909189
:100D600011028130910509F0ECC08091060290914A
:100D70000702019721F461E088E00E940B01809155
:100D8000100290911102019721F410920302109227
:100D900002028091060290910702892B21F460E003
:100DA00088E00E940B018091040290910502019756
:100DB00031F08091020290910302019751F461E0B9
:100DC00087E00E940B0164EF71E080E090E00E94F8
:100DD0008F0160E087E00E940B0164E670E080E034
:100DE00090E00E948F0140E061E080E292E00E948A
:100DF0009E03C6010197F1F76114710409F43BCF1A
:100E00000E94000038CF892809F084C081E0E816EC
:100E1000F104F1F40130110509F07CC0219709F0CB
:100E200079C060E080E00E94C4030E94FD030E943C
:100E3000FD030E94FD038BE291E00E947C0360E0D1
:100E400085E00E94C4038DE291E00E947C0372CF92
:100E5000EF2809F05FC00130110509F5C130D10557
:100E600009F058C060E080E00E94C4030E94FD03C6
:100E70000E94FD038BE291E00E947C038BE291E0F3
:100E80000E947C0360E085E00E94C40383E391E05C
:100E90000E947C03D0930702C09306024BCF012B24
:100EA000C9F5C130D105C9F460E080E00E94C403F7
:100EB0000E94FD038BE291E00E947C038BE291E0B3
:100EC0000E947C038BE291E00E947C0360E085E05D
:100ED0000E94C40388E391E0B8CFCD2BD9F460E041
:100EE00080E00E94C4038BE291E00E947C038BE2CD
:100EF00091E00E947C038BE291E00E947C038BE2F4
:100F000091E00E947C0360E085E00E94C4038EE3D0
:100F100091E09BCF60E088E00E940B0160E080E000
:100F20000E94C40382E491E00E947C03B092050217
:100F3000A092040203CF80E00E94C40381E591E007
:100F40000ACF892B09F01BCF60E088E00E940B01DB
:100F500060E08BE00E94C4038AE591E00E947C037C
:100F600061E08BE00E94C4038EE591E00E947C0367
:100F7000B0920302A092020202CFEE0FFF1F059073
:100F8000F491E02D0994F894FFCF00004000140084
:100F900054000000000063023602790328022F0289
:100FA0002C02290200000000F7038C007903C10124
:100FB00046554C4C005F00332F3474680048414C58
:100FC0004600312F347468004C4F57004552524F41
:100FD00052210050756D70204F4E0050756D70207D
:0E0FE0004F4646004C6F770053756D70000051
:107E0000112484B714BE81FFF0D085E080938100F7
:107E100082E08093C00088E18093C10086E0809377
:107E2000C20080E18093C4008EE0C9D0259A86E02C
:107E300020E33CEF91E0309385002093840096BBD3
:107E4000B09BFECF1D9AA8958150A9F7CC24DD24C4
:107E500088248394B5E0AB2EA1E19A2EF3E0BF2EE7
:107E6000A2D0813461F49FD0082FAFD0023811F036
:107E7000013811F484E001C083E08DD089C08234E0
:107E800011F484E103C0853419F485E0A6D080C0E4
:107E9000853579F488D0E82EFF2485D0082F10E0AE
:107EA000102F00270E291F29000F111F8ED06801E7
:107EB0006FC0863521F484E090D080E0DECF843638
:107EC00009F040C070D06FD0082F6DD080E0C81688
:107ED00080E7D80618F4F601B7BEE895C0E0D1E017
:107EE00062D089930C17E1F7F0E0CF16F0E7DF06D8
:107EF00018F0F601B7BEE89568D007B600FCFDCFD4
:107F0000A601A0E0B1E02C9130E011968C91119780
:107F100090E0982F8827822B932B1296FA010C0160
:107F200087BEE89511244E5F5F4FF1E0A038BF0790
:107F300051F7F601A7BEE89507B600FCFDCF97BE46
:107F4000E89526C08437B1F42ED02DD0F82E2BD052
:107F50003CD0F601EF2C8F010F5F1F4F84911BD097
:107F6000EA94F801C1F70894C11CD11CFA94CF0C13
:107F7000D11C0EC0853739F428D08EE10CD085E9AC
:107F80000AD08FE07ACF813511F488E018D01DD067
:107F900080E101D065CF982F8091C00085FFFCCF94
:107FA0009093C60008958091C00087FFFCCF809118
:107FB000C00084FD01C0A8958091C6000895E0E648
:107FC000F0E098E1908380830895EDDF803219F02E
:107FD00088E0F5DFFFCF84E1DECF1F93182FE3DFCA
:107FE0001150E9F7F2DF1F91089580E0E8DFEE27F6
:047FF000FF270994CA
:027FFE00040479
:00000001FF
